:100000000200037581209000018583A0120132EC6B
:100010004D607378208003760018B820FA7820802D
:1000200003760018B820FA781F8003760018B81FEE
:10003000FA78208003760018B81FFA900001AE838A
:10004000AF8290000112008F6005E4F0A380F6906B
:100050000001A882900001A982E8696005E4F20825
:1000600080F79000ED1200989000F1120098900037
:10007000F51200989000F91200B69000FF1200B639
:100080009001051200B675D00012011A02010BEFA3
:1000900065827003EE658322E493F8740193F9742A
:1000A0000293FE740393F5828E83E869700122E463
:1000B00093F6A30880F4E493FC740193FD74029317
:1000C000FE740393FF740493F8740593F582888398
:1000D00012008F700122E493A3A883A9828C838DE0
:1000E00082F0A3AC83AD828883898280E3202001E3
:1000F0000D2121010D2121010D0001010D010D0036
:1001000001010D010D0001010D010D80FE75800042
:1001100075900075A00075B0002212010D7F00EFF0
:1001200024F6400B75B0018F8075B0000F80F08F02
:0701300020227C017D00226A
:00000001FF
:00000001FF
