:100000000200037581519000018583A0120189ECE3
:100010004D607378518003760018B851FA7851809A
:1000200003760018B851FA781F8003760018B81FBD
:10003000FA78208003760018B81FFA900001AE838A
:10004000AF8290000112008F6005E4F0A380F6906B
:100050000001A882900001A982E8696005E4F20825
:1000600080F79000ED1200989000F1120098900037
:10007000F51200989000F91200B69000FF1200B639
:100080009001051200B675D00012012202010BEF9B
:1000900065827003EE658322E493F8740193F9742A
:1000A0000293FE740393F5828E83E869700122E463
:1000B00093F6A30880F4E493FC740193FD74029317
:1000C000FE740393FF740493F8740593F582888398
:1000D00012008F700122E493A3A883A9828C838DE0
:1000E00082F0A3AC83AD828883898280E3202001E3
:1000F000155252011552520115000101150115004A
:10010000010115011500010115011580FE08A3E488
:1001100093F6D9F92275800075900075A00175B02D
:100120000022782290018E793012010F120115E41D
:10013000FEFFC3EE941AEF9400501975B001EEF56E
:100140008075A001E5A0600280FA75B0000EBE00C7
:10015000010F80DE8E218F20E4FEFFC3EE9418EFA6
:100160009400502075B001EE25E02422F808E6F551
:100170008075A001E5A0600280FA75B0000EBE0097
:10018000010F80D78E218F20227C017D002200125A
:100190000000000E001A000900080004001A000206
:1001A00000070004000D001A00080012001A0007E2
:0E01B0000000000D00030012000E000C000401
:00000001FF
:00000001FF
